:100000000C943A010C9459010C9459010C94590127
:100010000C9459010C9459010C9459010C945901F8
:100020000C9459010C9459010C9459010C945901E8
:100030000C9459010C9459010C9459010C945901D8
:100040000C9459010C9459010C9459010C945901C8
:100050000C9459010C9459010C9459010C945005BD
:100060000C9459010C9459010C9459010C945901A8
:100070000C9459010C9459010C9459010C94590198
:100080000C9459010C9459010C9459010C94590188
:100090000C9459010C945901000000000000005F0D
:1000A00000000003000300143E143E14242A7F2A9B
:1000B000124333086661364955225000050300009B
:1000C000001C2241000041221C0014083E081408B4
:1000D000083E0808005030000008080808080060C2
:1000E00060000020100804023E5149453E00040211
:1000F0007F00426151494622414949361814127F16
:100100001027454545393E494949320101710907E2
:100110003649494936264949493E003636000000ED
:10012000563600000814224100141414141400411F
:1001300022140802015109063E4159555E7E090903
:10014000097E7F494949363E414141227F41414133
:100150003E7F494949417F090909013E4141493AE8
:100160007F0808087F00417F4100304040403F7FCA
:10017000081422417F404040407F020C027F7F02F2
:1001800004087F3E4141413E7F090909061E2121A5
:10019000215E7F09090976264949493201017F011B
:1001A000013F4040403F1F2040201F7F2010207F04
:1001B00041221C224107087008076151494543004C
:1001C0007F41000002040810200000417F0004026B
:1001D0000102044040404040000102040020545409
:1001E00054787F4444443838444444443844444474
:1001F0007F385454541804047E0505085454543C64
:100200007F0804047800447D40002040443D007F86
:100210001028440000417F40007C047804787C086A
:1002200004047838444444387C1414140808141422
:10023000147C007C080404485454542004043F44B3
:10024000443C4040207C1C2040201C3C4030403C32
:1002500044281028440C5050503C4464544C4400F2
:100260000836414100007F0000414136080002018C
:100270000204020011241FBECFEFD0E2DEBFCDBFCB
:1002800011E0A0E0B1E0E4E2FBE500E00BBF02C05A
:1002900007900D92A834B107D9F724E0A8E4B1E0A3
:1002A00001C01D92A634B207E1F70E94042A0C9403
:1002B000902D0C940000CF93C82F8A3019F48DE054
:1002C0000E945B018091C80085FFFCCFC093CE00E7
:1002D0008C2FCC0F990BCF9108958091C80087FF88
:1002E000FCCF8091CE0090E008951092CD0083E382
:1002F0008093CC0088E18093C90086E08093CA0097
:10030000E0E4F4E08EE091E093838283958384833C
:1003100080E091E0918380830895E1E6F0E080E859
:1003200080831082279A0E9475010E9486030E9492
:10033000EE050C94A90693E89093B00091E0909399
:10034000B1008093B300089590938D0380938C0344
:1003500026E330E020930040009779F480EF90E0AE
:10036000909389038093880380E491E090938B03BA
:1003700080938A0388E490E034C08130910579F459
:1003800080E491E0909389038093880380EF90E06C
:1003900090938B0380938A0388EE90E022C0823092
:1003A000910579F480EF90E090938903809388031E
:1003B00080E491E090938B0380938A0388E890E037
:1003C00010C0039781F480E491E0909389038093B7
:1003D000880380EF90E090938B0380938A0388E2F8
:1003E00090E0809300418AE290E08093004020E01A
:1003F00030E0309300412093004180918803909138
:100400008903019790930041809300418BE290E033
:1004100080930040309300412093004180918A03F3
:1004200090918B0301979093004180930041089530
:10043000CF93873748F4883048F08D3350F48F31AC
:1004400050F4803150F403C086E703C088E0C3E075
:1004500005C0C0E003C0C1E001C0C2E021EB30E054
:1004600020930040C0930041682F70E080E090E04E
:100470000E94762B9B01AC0160E070E080EF94E479
:100480000E94D32A0E94452B70E002C075956795A3
:10049000CA95E2F760930041CF9108950F931F939F
:1004A000CF93DF93CDB7DEB728970FB6F894DEBFB2
:1004B0000FBECDBF29833A834B835C836D837E83DC
:1004C0008F83988769817A812B813C814D815E8100
:1004D0008F819885EAE2F0E0E0930040709300415C
:1004E000609300413093004120930041EBE2F0E043
:1004F000E0930040509300414093004190930041AD
:1005000080930041ECE2F0E0E09300402F5F3F4F2A
:10051000261B370B0196841B950B2817390790F47F
:10052000482F4770429FB001439F700D112453E044
:10053000969587955A95E1F7829FA001839F500D6C
:10054000112411C0422F4770489FB001499F700D80
:10055000112443E0369527954A95E1F7289FA0019D
:10056000299F500D1124862F8770815028F01093F9
:10057000004100930041F9CFCB0123E09695879588
:100580002A95E1F7840F951F019708F11093004118
:1005900000930041109300410093004110930041EB
:1005A00000930041109300410093004110930041DB
:1005B00000930041109300410093004110930041CB
:1005C000009300411093004100930041DDCF289635
:1005D0000FB6F894DEBF0FBECDBFDF91CF911F9154
:1005E0000F910895EF92FF920F931F93CF93DF9394
:1005F000CDB7DEB728970FB6F894DEBF0FBECDBFDC
:1006000029833A834B835C836D837E838F839887B2
:1006100089819A81EB80FC806D817E81AF81B88574
:100620002AE230E020930040909300418093004103
:10063000F0920041E09200412BE230E02093004034
:100640007093004160930041B0930041A09300413A
:100650002CE230E020930040E816F906A0F0A80153
:100660009B018A01A217B30760F04E5F5F4FF8014C
:100670000081118110930041009300412F5F3F4F93
:10068000F0CF0196E9CF28960FB6F894DEBF0FBEE3
:10069000CDBFDF91CF911F910F91FF90EF90089503
:1006A0000F931F93CF93DF93CDB7DEB728970FB685
:1006B000F894DEBF0FBECDBFE8E8F3E017821682E4
:1006C000118610861A821982808191810197482FA4
:1006D0009C838B831E821D828281938101979887E0
:1006E0008F830485158520E03A815C8160E07E81FE
:1006F00098850E944E0228960FB6F894DEBF0FBE72
:10070000CDBFDF91CF911F910F91089586E0809327
:10071000750080E8809374003F9A249A8FEC97E0EC
:100720000197F1F700C0000047988FE39CE901971B
:10073000F1F700C00000479A9FEF2DEE82E0915044
:1007400020408040E1F700C0000088E290E0809304
:10075000004081E190E0809300409FEF26E781E038
:10076000915020408040E1F700C0000021E030E0DF
:100770008BEC90E0809300402093004180EC90E06F
:100780008093004088E096E290930041809300417E
:1007900020E130E081EC90E0809300402093004124
:1007A00085EC90E0809300408EE395E390930041C8
:1007B0008093004125EB30E087EC90E0809300408F
:1007C0002093004121E030E086EF90E080930040EC
:1007D0002093004180E090E090930041809300419D
:1007E00025E530E08AE390E08093004020930041CB
:1007F00081E090E00E94A4010E945003E8E8F3E049
:100800001782168211861086158614868FEF9FEF49
:100810009387828789E290E0809300409FE728E3F6
:1008200081E0915020408040E1F700C0000020E0CE
:1008300030E085E390E08093004020930041EAE6B9
:10084000F0E08081806280832C9A08959F92AF921D
:10085000BF92CF92DF92EF92FF920F931F93CF93AD
:10086000DF9320919003309191038A30F9F4109234
:100870008F0310928E03285F3F4F30939103209394
:10088000900380918A0390918B032817390708F40D
:10089000A5C0DF91CF911F910F91FF90EF90DF9056
:1008A000CF90BF90AF909F900C94500390EE980F14
:1008B0009F3508F093C060918E0370918F03A9015A
:1008C000495F5F4F082E000C990B8097E5E0E89F89
:1008D000E001E99FD00D11248BE290E0809300406D
:1008E00030930041209300415093004140930041D8
:1008F000CB01DB0114960AE210E0ECE2EE2EF12CC3
:10090000A817B90780F100930040909300418093AD
:1009100000419093004180930041E0920040FC012F
:10092000E61BF70BEC0FFD1FE856FF4F9490690193
:10093000F1E04C155D05A8F0BF2EB92029F0A0907C
:100940009203B090930304C0A0909403B0909503D9
:10095000B0920041A0920041EFEFCE1ADE0AFF0FE5
:10096000E8CF0196CDCF6AE270E0609300409093AB
:1009700000418093004190930041809300418CE2BC
:1009800090E0809300404217530758F08091940301
:100990009091950390930041809300412F5F3F4FCA
:1009A000F2CF80918E0390918F03069690938F03E0
:1009B00080938E03209188033091890382179307D7
:1009C00068F010928F0310928E03809190039091A3
:1009D000910308969093910380939003DF91CF91B8
:1009E0001F910F91FF90EF90DF90CF90BF90AF904D
:1009F0009F9008950F931F93CF938C01C0E0F8014F
:100A0000EC0FF11D8081882321F00E942604CF5F26
:100A1000F6CFCF911F910F9108950F931F93CF930E
:100A20008C0170938F0360938E03509391034093D6
:100A30009003C0E0F801EC0FF11D8081882321F0C4
:100A40000E942604CF5FF6CFCF911F910F9108959A
:100A5000EF92FF920F931F93CF93DF93C0E0D0E00C
:100A600090E8E92EF12C082F10E0C7010C2E02C0EF
:100A7000959587950A94E2F780239123892B11F0AD
:100A800081E301C08EE20E9426042196C830D10580
:100A900061F7DF91CF911F910F91FF90EF90089533
:100AA0001F920F920FB60F9211240BB60F92CF9296
:100AB000DF92EF92FF920F931F932F933F934F93E9
:100AC0005F936F937F938F939F93AF93BF93CF93D6
:100AD000DF93EF93FF9310E00DE0DD24D394CC245B
:100AE000CA94E12EF12C80912701082E000C990B5D
:100AF0008E159F050CF457C00E9DE0010F9DD00D83
:100B00001124CA56DC4F4D815E816F8178858981C1
:100B10009A81AB81BC81481759076A077B0778F136
:100B2000E0914A01F0E0E45EFE4F8081181738F54D
:100B30008881811124C0F8941D821E821F8218862C
:100B4000D882E0914A01EF5FE0934A01F0E0E45E71
:100B5000FE4F10837894E985FA858B859C850995ED
:100B60009C878B87F894188280914A01E82FF0E0E7
:100B7000E45EFE4FC082815080934A0178940E9DBE
:100B8000F0010F9DF00D1124EA56FC4F85819681EE
:100B9000A781B0850196A11DB11D85839683A7838A
:100BA000B0871F5F9ECFFF91EF91DF91CF91BF91F3
:100BB000AF919F918F917F916F915F914F913F91F5
:100BC0002F911F910F91FF90EF90DF90CF900F909A
:100BD0000BBE0F900FBE0F901F90189583E884BD39
:100BE00085B5836085BD81E080936E0016BC8FEF74
:100BF00087BD0895882319F087BD279A08952798FF
:100C00000895EF92FF920F931F93CF93DF937C0190
:100C1000C09127010C2E000CDD0B2196CA30D105A6
:100C20005CF58901CB01BA010E94742B25E732E003
:100C30004AEF5EE30E94022C20E030E040E05FE3F8
:100C40000E94672A0E94452B2DE02C9FF0012D9FCA
:100C5000F00D1124EA56FC4F6183728383839483E1
:100C600065837683878390871082F286E186148776
:100C70000387C093270102C0CFEFDFEFCE01DF91E2
:100C8000CF911F910F91FF90EF900895AC01F894D0
:100C90009CB195FF02C023E001C020E094FF02C098
:100CA00081E0282790914E01921B90FF09C020936C
:100CB0004E0120911B0492702150920F90931B04BF
:100CC0007894CA010895AC01F89496B18CB123B11F
:100CD00030911A04906C8F6798232F6B9223909514
:100CE000392720914D012323922F909590934D0108
:100CF00020914C012323292720934C0193239223F5
:100D000080911A04892780931A0420911A048091F3
:100D100018049223982B9093180480911A048C7FC6
:100D200019F48CE380934B0180914B01815019F0B1
:100D300080934B010BC08AE080934B0180911A0491
:100D4000909119048C7F892B809319047894CA019F
:100D500008958DB18F7C8DB98EB180638EB96F98F7
:100D6000779A87B1837C87B988B18C6388B92698D4
:100D70002E9A20E030E042E050E060E070E086E44F
:100D800096E00E94010620E030E04AE050E060E09A
:100D900070E083E696E00C940106F89480911B04C1
:100DA00090911B04917090931B04789485950895FD
:100DB000F89490911804892390911804982790939F
:100DC000180478940895F8949091190489239091C7
:100DD00019049827909319047894089590911A040F
:100DE00089230895F89490911A04909589230C947E
:100DF000D8060E94E3060C94D806CF93DF93DB015C
:100E0000FC019A012230310538F0CD91DD91C1937A
:100E1000D19322503109F6CF9A012E7FFC01E20FC7
:100E2000F31FDB01A20FB31F4217530711F02C91E0
:100E30002083DF91CF9108950F931F93CF93DF937A
:100E40008B01FB013996DC011E964D915D916D91F0
:100E50007C915197452B462B472BA9F15296CD916A
:100E6000DC915397AE0180E090E03EE20196DA011A
:100E70002D91AD01203251F0253009F425EE893055
:100E8000910511F430833196208331968B30910592
:100E900069F78B85D80118968C9318974C8D5D8DCA
:100EA0006E8D7F8D4D935D936D937C931397888D9D
:100EB000998D15969C938E9314978E899F8917967A
:100EC0009C938E9316971082DF91CF911F910F9173
:100ED0000895DC01ED91FC913097C1F0DF019D0197
:100EE0004D91413280F04A33D1F7AF014F5F5F4FF0
:100EF0002417350759F44081403341F42F5F3F4FA9
:100F0000FC013183208380E090E008958FEF9FEF14
:100F100008950097D1F0DC01ED91FC911197309785
:100F2000A1F02081222389F02681378112968D91AC
:100F30009C9113972817390741F481810E94DB2384
:100F400080FD06C080E090E0089589E090E008957B
:100F500083E090E008958F929F92AF92BF92CF92DC
:100F6000DF92EF92FF920F931F93CF93DF93EC01E9
:100F70008AA49BA4ACA4BDA46C018EE2C80ED11CB3
:100F800001E010E0A5019401B60189810E94D424FA
:100F9000892B89F51C828E8D9F8DA8A1B9A1B501E1
:100FA000A401481B590B6A0B7B0B8E899F89A88D66
:100FB000B98D481759076A077B0718F080E090E061
:100FC0001CC0EB80F12C82E0E816F104B8F38E89A6
:100FD0009F89A88DB98D880E991EAA1EBB1E01E09F
:100FE00010E0A5019401B60189810E94D42481E01A
:100FF000E81AF108E8CF81E090E0DF91CF911F91EE
:101000000F91FF90EF90DF90CF90BF90AF909F90A7
:101010008F900895FC01248121110C94AB0780E08E
:1010200090E008958F929F92AF92BF92EF92FF92BD
:101030000F931F93CF93DF93EC014A015B018AA5C5
:101040009BA5ACA5BDA584179507A607B707F1F02A
:10105000CE010E940A087C01892BD1F401E010E046
:10106000A5019401BE01625D7F4F89810E948A249F
:10107000892B39F0EE24E394F12C88248A94982C5F
:1010800054018AA69BA6ACA6BDA602C0E12CF12CF9
:10109000C701DF91CF911F910F91FF90EF90BF900B
:1010A000AF909F908F900895CF93DF93EC011C82B7
:1010B0008FEF9FEFDC018AA79BA7ACA7BDA7CE014E
:1010C0000E941208892B11F5FE01E45DFD4F80811D
:1010D000918185359A4AE1F4E85CF1408081918103
:1010E000A281B381BB2786349144A445B10591F018
:1010F000C058DF4F488159816A817B81772781E021
:10110000463451446445710531F404C083E003C0A2
:1011100082E001C080E0DF91CF9108952F923F924D
:101120004F925F926F927F928F929F92AF92BF92F7
:10113000CF92DF92EF92FF920F931F93CF93DF93A3
:10114000CDB7DEB76D970FB6F894DEBF0FBECDBF3B
:101150006C01CB01B42ED6011D921C920E9469072E
:101160007C0197FD33C2FC01EE0FFF1FEF5AFE4FCB
:10117000008111810115110509F42BC2F6011183BB
:101180000083D8018C91882371F011968C910E9474
:10119000DB2380FD08C0BB2009F41EC282FF1CC2F5
:1011A0008AE090E03DC2F8011082E1828E2D0E941B
:1011B000E22380FD14C2BB2011F082FDF1CF40E09C
:1011C00050E0BA01C8010E9454088130D1F5F801FD
:1011D000E051FE4F9E012F5F3F4F6901C801805DC6
:1011E0009D4FD9012081222329F0448155816681B8
:1011F000778103C040E050E0BA014D935D936D9359
:101200007D937096E817F90769F77E0131E1E30EE7
:10121000F11CD6014D905D906D907D906D01411453
:1012200051046104710441F0B301A201C8010E949C
:101230005408811102C010C082E0EC14FD0449F78B
:1012400003C0412C512C3201833009F4CBC18823D7
:1012500019F08DE090E0E4C1F80181AD92AD811507
:101260009240B9F7F801EC5BFF4F80809180A12C90
:10127000B12C81149104A104B10429F43E9680801C
:101280009180A280B380D80156968D929D92AD92A6
:10129000BC925997DE964C91DE9713964C93139718
:1012A0008FEF840F8230A8F6DB96EC91DB97E98B09
:1012B0001296EC931297EE2361F28E2F90E09C0130
:1012C0002150310982239323892B19F6F801FF96C7
:1012D0002080318019963C922E921897C1018F7010
:1012E0009927892B09F0B5CF3296C080D180E12CA7
:1012F000F12CC114D104E104F10429F43D96C0801D
:10130000D180E280F380D801DC96ED91FC91DD97ED
:10131000309709F49ECFA42FB0E0A50194010E945C
:101320004C2A6E8B7F8B888F998F9F0140E050E015
:101330002A8F3B8F4C8F5D8FC10164E09695879516
:101340006A95E1F7280F391F411D511DDA01C901C6
:101350002E893F89488D598D280F391F4A1F5B1FE1
:101360002A8B3B8B4C8B5D8BC216D306E406F506AD
:1013700008F46FCFC701B601621B730B840B950B8A
:10138000E9892E2F30E040E050E00E942A2A211502
:1013900031054105510509F45CCF69017A01F2E09C
:1013A000CF0ED11CE11CF11C8A8D9B8DAC8DBD8DA7
:1013B000840D951DA61DB71D8A8F9B8FAC8FBD8F89
:1013C0008A899B89AC89BD89840D951DA61DB71D91
:1013D0008A8B9B8BAC8BBD8B263F9FE039074105E9
:1013E0005105B8F1263F3F4F4105510508F4FDC0B6
:1013F000F801C28AD38AE48AF58A428E538E648EBB
:10140000758E2A8D3B8D4C8D5D8D268F378F40A339
:1014100051A32A893B894C895D8926A337A340A71C
:1014200051A7232809F015CFE65AFF4F80819181FB
:10143000A281B381F80182A393A3A4A3B5A342E040
:10144000CC0CDD1CEE1CFF1C4A95D1F7F3E0F98BA8
:101450003EC0F1E0F98BD8015296CD92DD92ED922B
:10146000FC925597F801428E538E648E758E2A8DAC
:101470003B8D4C8D5D8D5E962D933D934D935C938E
:1014800091972A893B894C895D8996962D933D9346
:101490004D935C939997232809F4DBCE8A8D9B8D1D
:1014A000AC8DBD8D2E893F89488D598D820F931F3C
:1014B000A41FB51FF80182A393A3A4A3B5A3F98920
:1014C000F23009F095C0CC0CDD1CEE1CFF1C4FEF78
:1014D000C40E41E0D41EE11CF11C89E0F694E794AF
:1014E000D794C7948A95D1F78C149D04AE04BF0499
:1014F00008F4AFCE8FEF9FEFDC01F8018687978766
:10150000A08BB18B82879387A487B58780E885837A
:10151000F989F33009F049C0F801E25AFF4F8081A0
:101520009181019709F041C0B301A2014F5F5F4F64
:101530006F4F7F4FC8010E941208892BB1F5D80167
:1015400015961C92F801E45DFD4F808191818535EF
:101550009A4A59F5F80186A597A5A0A9B1A982359F
:101560009245A146B14409F5F801EE5EFD4F808138
:101570009181A281B38182379247A144B146A9F4F7
:10158000349680819181A281B381F8018687978703
:10159000A08BB18BE65EFD4F80819181A281B381EA
:1015A000F80182879387A487B587E989D801EC93EE
:1015B00080914F019091500101969093500180933A
:1015C0004F0117969C938E93169706C08BE090E080
:1015D00027C08CE090E024C080E090E021C083E050
:1015E00090E01EC081E090E01BC022E0298B33CF49
:1015F000A3E0B0E0A70196010E944C2ADC01CB01D8
:10160000B695A7959795879521E0C222DD24EE2413
:10161000FF24C80ED91EEA1EFB1E31E0398B57CFBE
:101620006D960FB6F894DEBF0FBECDBFDF91CF91A0
:101630001F910F91FF90EF90DF90CF90BF90AF90F0
:101640009F908F907F906F905F904F903F902F90E2
:1016500008950F931F93CF93DF93EC010E940A0824
:10166000009709F05FC08881833009F04EC08D81FA
:10167000813009F04AC0BE01625D7F4FFB01CE019F
:10168000825D9D4FE817F90711F01192FBCF85E5B8
:101690009AEAFE01E45DFD4F9183808382E592E545
:1016A000A1E6B1E48EA79FA7A8ABB9AB82E792E70A
:1016B000A1E4B1E67A9780839183A283B3838E8578
:1016C0009F85A889B989349680839183A283B38347
:1016D0008A859B85AC85BD85349680839183A28362
:1016E000B3838A8D9B8DAC8DBD8D9C01AD012F5F29
:1016F0003F4F4F4F5F4F2AA73BA74CA75DA701E085
:1017000010E089810E94D4241D8240E050E060E016
:1017100089810E943D2531E020E0892B09F430E0E9
:10172000832F922FDF91CF911F910F9108950F93E7
:101730001F93FC019A01AB01225031094109510963
:1017400082899389A489B5890297A109B1092817CB
:1017500039074A075B0768F4A281B0E00E944C2A6F
:1017600006A117A120A531A5600F711F821F931F2D
:1017700003C060E070E0CB011F910F910895AF921C
:10178000BF92CF92DF92EF92FF920F931F93CF936E
:10179000DF93423051056105710508F4B0C0FC01CA
:1017A0000289138924893589401751076207730715
:1017B00008F0A5C06A017B018C018081823009F4A8
:1017C0004DC0833009F46EC0813009F098C0EA0141
:1017D000D695C795CC0DDD1DCE01892F992786950D
:1017E000468D578D60A171A1480F591F611D711D54
:1017F000CF010E941208892B21F06FEF7FEFCB0100
:1018000082C05E01FFEFAF1ABF0AD170C00FD11FB7
:10181000CEA5C501892F99278695F801468D578D4C
:1018200060A171A1480F591F611D711DC8010E945F
:101830001208892B11F7F1E0BF22F801EA0DFB1D18
:1018400086A56C2F70E0782BC0FE06C054E076951C
:1018500067955A95E1F723C07F7021C077276F2DD8
:101860005E2D4D2D868D978DA0A1B1A1480F591FDA
:101870006A1F7B1FCF010E941208892B09F0BDCF80
:10188000CC0CDD1CEE1CFF1CE894C0F8F1E0DF225C
:10189000EE24FF24F801EC0DFD1D66A577A580E080
:1018A00090E031C0868D978DA0A1B1A127E07695FB
:1018B0006795579547952A95D1F7480F591F6A1F85
:1018C0007B1FCF010E941208892B09F096CF82E07E
:1018D000CC0CDD1CEE1CFF1C8A95D1F7FCEFCF224F
:1018E000F1E0DF22EE24FF24F801EC0DFD1D86A5BA
:1018F00097A5A0A9B1A9BC01CD019F7004C061E06A
:1019000070E080E090E0DF91CF911F910F91FF9008
:10191000EF90DF90CF90BF90AF900895AF92BF92BD
:10192000CF92DF92EF92FF920F931F93CF93DF93AB
:101930008C01EB01DC0115967C936E93149716963F
:10194000CD90DD90ED90FC901997B1E0CB16D104CD
:10195000E104F10419F482E090E089C0DC01ED912A
:10196000FC9182899389A489B589C816D906EA06AB
:10197000FB0688F7C114D104E104F104B9F48081B5
:10198000833041F482A193A1A4A1B5A10097A10540
:10199000B10551F480859185C817D907E0F662A199
:1019A00073A184A195A132C06C017D01A280B0E138
:1019B000AB9E50011124F80180819181B701A601ED
:1019C000CA15DB0508F10E94BF0B6B017C016F3F5C
:1019D000EFEF7E078E079E0709F447C0623071055E
:1019E0008105910508F4B7CFD801ED91FC9182896A
:1019F0009389A489B589C816D906EA06FB0608F0BA
:101A0000AACFCA19DB09D7CF0E94970BD8011A9623
:101A1000CD92DD92ED92FC921D97611571058105C5
:101A2000910509F498CF9E0144E0369527954A9593
:101A3000E1F7DC01CB01820F931FA11DB11DF8015D
:101A400086879787A08BB18B808191818E96CF708E
:101A5000DD2755E0CC0FDD1F5A95E1F7C80FD91FE0
:101A6000D38BC28B80E090E002C081E090E0DF91F8
:101A7000CF911F910F91FF90EF90DF90CF90BF908B
:101A8000AF900895CF93DF93EC016C817D810E942C
:101A90008E0C0097E1F44E855F856889798988818D
:101AA00099810E941208009791F4EA89FB899F01AD
:101AB000205E3F4FE217F30711F01192FBCFEA8946
:101AC000FB8925EE2083E881F98121E02483DF91E1
:101AD000CF9108954F925F926F927F928F929F92D3
:101AE000AF92BF92CF92DF92EF92FF920F931F932C
:101AF000CF93DF93423051056105710508F4D8C0DA
:101B0000FC01C288D388E488F5884C155D056E0514
:101B10007F0508F0CDC0280139016A017B01EC0185
:101B20008081823009F465C0833009F487C0813038
:101B300009F0BEC05A01B694A794A40EB51EC50103
:101B4000892F992786954E8D5F8D68A179A1480FC1
:101B5000591F611D711DCE010E941208009709F0E6
:101B6000A9C085010F5F1F4FF1E0BF22FE01EA0D02
:101B7000FB1D4601570121E082229924AA24BB249F
:101B8000C0FE09C086A5282F2F7030E1439EC001FA
:101B90001124822B01C0842D86A781E08C834E8D79
:101BA0005F8D68A179A1C801892F99278695480F73
:101BB000591F611D711DCE010E941208009709F086
:101BC00079C01170FE01E00FF11F89288A288B2847
:101BD00041F064E076946794579447946A95D1F7FE
:101BE00006C006A5007F252D2F70402E422A46A64E
:101BF0005CC077276F2D5E2D4D2D868D978DA0A112
:101C0000B1A1480F591F6A1F7B1FCF010E94120804
:101C1000009709F04FC0CC0CDD1CEE1CFF1CE894B3
:101C2000C0F8E1E0DE22EE24FF24FEE2CF0ED11C5C
:101C3000FE01EC0DFD1D5182408237C0868D978DCF
:101C4000A0A1B1A137E076956795579547953A954C
:101C5000D1F7480F591F6A1F7B1FCF010E9412083E
:101C6000009741F522E0CC0CDD1CEE1CFF1C2A95F0
:101C7000D1F72CEFC22221E0D222EE24FF243EE253
:101C8000C30ED11CFE01EC0DFD1D008111812281CE
:101C90003381002711272227307F402A512A622AC8
:101CA000732A408251826282738221E02C8302C0B7
:101CB00082E090E0DF91CF911F910F91FF90EF9024
:101CC000DF90CF90BF90AF909F908F907F906F905C
:101CD0005F904F9008954F925F926F927F928F9294
:101CE0009F92AF92BF92CF92DF92EF92FF920F93AB
:101CF0001F93CF93DF93EC012A013B01411551055E
:101D00006105710599F48A849B84AC84BD84811437
:101D10009104A104B10451F18A899B89AC89BD89E0
:101D200088169906AA06BB0628F120C00E94BF0BA0
:101D3000623071058105910508F491C06F3F2FEF66
:101D400072078207920729F44FEF3FEF2FEF9FEFC3
:101D50008EC0CA88DB88EC88FD886C157D058E05F1
:101D60009F0508F481C05301420104C0812C912CCD
:101D700054018394750164018FEFC81AD80AE80AE8
:101D8000F80A8A899B89AC89BD89C816D906EA06F2
:101D9000FB0668F022E082169104A104B10410F45D
:101DA00040E05EC082E0C82ED12CE12CF12CB701BE
:101DB000A601CE010E94BF0B611571058105910539
:101DC00099F06F3F2FEF72078207920709F4BCCF9B
:101DD000613071058105910509F441C0C814D90429
:101DE000EA04FB0449F6DCCF0FEF1FEF2FEF3FE0D3
:101DF000B701A601CE010E946A0D009769F5411452
:101E0000510461047104C9F4CA86DB86EC86FD8640
:101E10008E859F85A889B9898F3F2FEF9207A207EA
:101E2000B207A9F00197A109B1098E879F87A88BF6
:101E3000B98B8D8181608D830AC097018601B301C2
:101E4000A201CE010E946A0D0097F1F205C04C2D4F
:101E50003D2D2E2D9F2D0BC0019709F475CF41E02C
:101E600030E020E090E003C0462F372F282F642F6A
:101E7000732F822FDF91CF911F910F91FF90EF90E1
:101E8000DF90CF90BF90AF909F908F907F906F909A
:101E90005F904F9008957F928F929F92AF92BF92E2
:101EA000CF92DF92EF92FF920F931F93CF93DF9326
:101EB000EC016B010C811D810F5F1F4F19F484E051
:101EC00090E0E6C04E855F856889798941155105A6
:101ED00061057105A1F378018FE0E822FF24E11488
:101EE000F10409F0C2C04F5F5F4F6F4F7F4F4E87C5
:101EF0005F87688B798B4A855B856C857D8588815A
:101F00009981FC01411551056105710531F4808508
:101F100091850817190798F6A8C0228130E0215052
:101F20003109F801A4E0F695E795AA95E1F72E238B
:101F30003F23232B09F099C00E94BF0B4B015C018A
:101F4000623071058105910518F482E090E0A0C02F
:101F50008FEF88169806A806B80619F481E090E07D
:101F600097C088819981FC01428953896489758968
:101F700084169506A606B70608F469C0CD2809F4AC
:101F80009ECF4A855B856C857D850E946B0E4B01DB
:101F90005C01611571058105910509F477C0613017
:101FA00071058105910589F28FEF88169806A806BC
:101FB000B806A1F2888199810E940A08892B71F6DE
:101FC00088819981FC01BE96825D9D4FE817F907D3
:101FD00011F01192FBCFC880D980B501A401C601D0
:101FE0000E94970BF60162A773A784A795A7C12C3F
:101FF000D12C77247394E881F981828190E0C8160E
:10200000D906C8F47482888199810E940A08892BB4
:1020100009F0A4CFE881F98182A593A5A4A5B5A56F
:102020000196A11DB11D82A793A7A4A7B5A7FFEF95
:10203000CF1ADF0AE0CF82A593A5A4A5B5A58C1978
:102040009D09A109B10982A793A7A4A7B5A78A866C
:102050009B86AC86BD86B501A401888199810E94CA
:10206000970B6E877F87888B998B1D830C83888164
:1020700099818E9625E0EE0CFF1C2A95E1F7E80E7B
:10208000F91EFB8AEA8A80E090E002C087E090E0D7
:10209000DF91CF911F910F91FF90EF90DF90CF9044
:1020A000BF90AF909F908F907F9008956F927F9296
:1020B0008F929F92AF92CF92DF92EF92FF920F9307
:1020C0001F93CF93DF938C01EB0188818F3211F046
:1020D0008C3509F42196D80116961D921D921D92F9
:1020E0001C9219978881803228F050E2F52E65E025
:1020F000E62E73C060E070E0C8010E948E0CE8011B
:102100001B8A1A8A2BC180E090E040E050E028E072
:1021100030E0A12C3A01DFEF6D1A7D0ABD01640F9A
:10212000751FEB017881713208F06AC0E301CA0FB4
:10213000DB1F713208F4B3C040E0892B09F4EAC018
:102140008081853E09F4E0822830310511F4AA0C23
:10215000AA0C8A2D8370813009F440618A2D8C701D
:10216000843009F44860438760E070E0C8010E9451
:102170008E0C009709F495C0D8015496ED91FC910E
:1021800055972385009709F0BDC022FDE7C0F801EF
:1021900042895389DA011B968C911B9784FFB7C043
:1021A0005A968D919C915B97A0E0B0E0208131819F
:1021B000F9012081233061F4FA014489558960E0F6
:1021C00070E0BA0155274427842B952BA62BB72BFB
:1021D000F80186839783A087B187DE0188812196E5
:1021E0008F32D9F38C35C9F3E801EC89FD89EF0111
:1021F000CF010B96C817D90709F485CFF992FACF0A
:102200007F3209F493CF7C3509F490CF7E3209F404
:102210009BC08217930708F07DC077FF03C0DA2DBB
:10222000D360AD2E6FE7670F6F3120F060E2670F6C
:102230006D3110F54E5F5F4FE301CA0FDB1F688100
:10224000C0ECC60FCF3328F0C0E8C60FCD3708F07A
:1022500061C0E90121978C179D0708F05BC0EF0171
:10226000C80FD91F7883EC012196CE0FDF1F02968D
:1022700068833A01A3014ECFC72ED12C45E3842EAB
:1022800041E0942EE40149914E01442309F445C0F4
:10229000042E000C550BC416D506A1F73BC044E034
:1022A0004CCFF8014685578560897189808191817D
:1022B0000E941208009709F05FCFD8015296ED9165
:1022C000FC91539720812223D1F0238523FD11C057
:1022D00054966D917C915597AF01455F5F4FE41720
:1022E000F50709F449CF3191DB012D91BD0132177A
:1022F000B1F360E070E0C8010E944B0F3ACF84E078
:1023000090E03ACF8430910549F522FD27C085E061
:1023100090E024C086E090E021C04FEB470F4A31A7
:1023200020F4DA2DD260AD2E08C04FE9470F4A31B4
:1023300020F44A2D4160A42E7052AF01480F591F5E
:10234000EA017883019696CF2830310519F7AA0C57
:10235000AA0C88E090E02BE030E08CCFDF91CF91A9
:102360001F910F91FF90EF90DF90CF90AF909F90D3
:102370008F907F906F900895CF93DF93EC0184E06E
:1023800090E04E855F856889798941155105610521
:10239000710509F1888199810E9412080097E9F47A
:1023A000EA89FB8980818823E9F0853E61F08E32DD
:1023B00051F083858F738F3031F08F71883019F031
:1023C00080E090E012C060E070E0CE010E944B0F10
:1023D0000097B9F202C0009799F31E861F86188AEB
:1023E000198A03C084E090E0F8CFDF91CF9108957F
:1023F0000F931F93CF93DF93EC0160E070E00E9496
:102400008E0C8C01892BD1F54E855F856889798981
:10241000888199810E9412088C01892B79F5EA89BB
:10242000FB898081853E81F44E855F856889798945
:10243000888199810E9412088C01892B21F5EA89F3
:10244000FB89CF01809608C0882371F361E070E0BA
:10245000CE010E944B0FD5CF8E179F0711F011921E
:10246000FBCF6C897D894BE050E08A899B890E9473
:10247000FD06E881F98181E0848305C004301105FF
:1024800011F407E010E0C801DF91CF911F910F9187
:1024900008958F929F92AF92BF92CF92DF92EF9268
:1024A000FF920F931F93CF93DF93EC016A017B019F
:1024B000423051056105710518F482E090E04FC08B
:1024C0008A899B89AC89BD89481759076A077B07A8
:1024D000A0F78A899B89AC89BD89C816D906EA0606
:1024E000FB0658F4B701A601CE010E94BF0B4B01B9
:1024F0005C01672B682B692B19F480E090E02FC0FA
:1025000081E088169104A104B104B9F22FEF82167C
:102510009206A206B20609F100E010E09801B701A8
:10252000A601CE010E946A0D0097C9F48E859F8591
:10253000A889B9898F3F2FEF9207A207B20751F000
:102540000196A11DB11D8E879F87A88BB98B8D81A8
:1025500081608D8375016401BCCF81E090E0DF91E3
:10256000CF911F910F91FF90EF90DF90CF90BF9090
:10257000AF909F908F9008951F93CF93DF9300D0DB
:1025800000D000D0CDB7DEB79C838B837E836D8374
:10259000142F7A836983CE0101960E94690797FD03
:1025A00024C0880F991FFC01EF5AFE4F0190F08163
:1025B000E02D309709F01082EB81FC81309709F013
:1025C00010822B813C81FC01EF5AFE4F3183208326
:1025D000232B71F0113061F440E0BE016B5F7F4F3F
:1025E000CE0103960E948E0805C08BE090E002C0E9
:1025F00080E090E026960FB6F894DEBF0FBECDBF08
:10260000DF91CF911F9108954F925F926F927F92C9
:102610008F929F92AF92BF92DF92EF92FF920F93B1
:102620001F93CF93DF93CDB7DEB7A4970FB6F8947F
:10263000DEBF0FBECDBF7CA36BA3009709F4FBC028
:10264000B42E7C01DC011D921C924E71BE016D5DA9
:102650007F4FCE0101960E948E08009709F0F6C0C8
:10266000CE0147969E8B8D8B6BA17CA146970E94D5
:1026700056100B891C89009729F40115110511F4D6
:1026800086E090E0BB2DBF71DB2E2B2D2C7109F461
:1026900073C0009789F08430910509F0D7C0CE014E
:1026A00001960E94F811009709F0D0C0ED2DE86066
:1026B000DE2E0B891C8908C0D8011B968C91817174
:1026C00009F0C2C0B2FCBAC0D3FE67C080E090E09F
:1026D000A9E6B5E4F80186879787A08BB18B1386AE
:1026E000D801148E158E168E178EE981FA815A96AE
:1026F0008D909C905B97A12CB12C8081833069F4E4
:1027000054964D915C91559760E070E0BA01552761
:102710004427842A952AA62AB72AD8015B961C92B8
:102720001E925A9755961C921E92549781E084836C
:1027300081149104A104B10469F142A453A464A4D6
:1027400075A4B501A401CF010E944912009709F0B8
:102750007DC089819A81B1E08B1A9108A108B108E6
:10276000FC0182869386A486B586B301A2010E94ED
:102770001208009769F06AC0009709F067C0D80195
:102780001B968C9184FD5DC0B1FE02C080FD5CC0D3
:10279000D3FE03C0BD2DB062DB2EA980BA80F50147
:1027A00042A553A564A575A5D7015A964D935D938F
:1027B0006D937C935D975F961C930E935E97149632
:1027C000DC92149715961C92F801828D938DA0E0EF
:1027D000B0E0F5012081233061F4F8014489558986
:1027E00060E070E0BA0155274427842B952BA62B77
:1027F000B72BF70186879787A08BB18BF801848D63
:10280000958DA68DB78DF70182879387A487B587AD
:102810001682178210861186168A178A108E118EDC
:10282000B182A082D50116968D919C9117979383C2
:10283000828380E001C089E090E008C088E090E0F9
:1028400005C084E090E002C087E090E0A4960FB657
:10285000F894DEBF0FBECDBFDF91CF911F910F91D6
:10286000FF90EF90DF90BF90AF909F908F907F9000
:102870006F905F904F9008952F923F924F925F928A
:102880006F927F928F929F92AF92BF92CF92DF9280
:10289000EF92FF920F931F93CF93DF93EC015B01B5
:1028A0006A011901F901118210820E9489070097BB
:1028B00009F011C18D81882311F090E00CC18C8149
:1028C00080FF07C18A859B85AC85BD854E815F8170
:1028D00068857985841B950BA60BB70BA60160E074
:1028E00070E084179507A607B70708F077C06C015A
:1028F00075C04E815F8168857985DB01CA01917061
:10290000AA27BB27892B8A2B8B2B09F0B7C088817C
:102910009981FC01228121502A013B01E9E0769452
:10292000679457944794EA95D1F7122F142109F42C
:102930005AC0888099804A895B896C897D89C401E5
:102940000E94970B611571058105910509F45FC01F
:102950002B013C01410E511C611C711C7601EF2CB6
:10296000FF24E694E114F10409F484C0F4018281A7
:10297000212F30E0A9014E0D5F1D90E084179507CF
:1029800018F47C01E21AF30A8701A3019201B50150
:10299000F40181810E948A24892B09F043C0E881D7
:1029A000F9818481811148C0FE2CEE24FF0CAE0C0D
:1029B000BF1C8E819F81A885B9858E0D9F1DA11D8D
:1029C000B11D8E839F83A887B987F1018081918192
:1029D0008E0D9F1D91838083CE18DF08C114D10412
:1029E00009F087CF73C0452B462B472B29F46E8502
:1029F0007F858889998906C04A895B896C897D8928
:102A00000E94BF0B623071058105910528F482E0B8
:102A10008D8382E090E05FC06F3FFFEF7F078F07FD
:102A20009F0729F481E08D8381E090E054C06A8B98
:102A30007B8B8C8B9D8B7DCF82A593A5A4A5B5A503
:102A400084199509A609B709A70160E070E0841709
:102A50009507A607B70708F0A7CFBF01625D7F4FB4
:102A6000982F8827990F40E052E08A0D9B1D0E9405
:102A7000FD069ACF4E8A5F8A688E798E8E819F81FD
:102A8000917020E032E0281B390B76012C153D05B2
:102A900008F479014E895F89688D798D88819981E3
:102AA0000E941208892B09F0BDCF8E819F81A885D5
:102AB000B9859170AA27BB278E9668817981680FA6
:102AC000791FA701C5010E94FD0671CF80E090E04B
:102AD00002C087E090E0DF91CF911F910F91FF90AE
:102AE000EF90DF90CF90BF90AF909F908F907F90AE
:102AF0006F905F904F903F902F9008952F923F924C
:102B00004F925F926F927F928F929F92AF92BF92FD
:102B1000CF92DF92EF92FF920F931F93CF93DF93A9
:102B2000EC015B016A011901F901118210820E9416
:102B30008907009709F06CC18D81882311F090E01E
:102B400067C18C8181FF62C18E819F81A885B98513
:102B5000AC01BD014C0D5D1D611D711D481759076C
:102B60006A077B0708F0B4C08E819F81A885B9856C
:102B70004A855B856C857D85481759076A077B0701
:102B800008F03EC18A879B87AC87BD8739C14E81DB
:102B90005F8168857985DB01CA019170AA27BB270F
:102BA000892B8A2B8B2B09F0FFC0E881F9812281C8
:102BB00021502A013B01A9E07694679457944794E9
:102BC000AA95D1F7122F142109F487C08881998121
:102BD000FC0142A453A464A475A44E895F89688D46
:102BE000798D441655066606770609F4BBC08880C1
:102BF00099804A895B896C897D89C4010E94970B01
:102C0000611571058105910509F48AC02B013C010C
:102C1000410E511C611C711C7601EF2CFF24E694BF
:102C2000E114F10409F4A4C0F4018281212F30E001
:102C3000A9014E0D5F1D90E08417950718F47C01E3
:102C4000E21AF30A8701A3019201B501F40181811F
:102C50000E94D424892B09F06EC088819981FC01DF
:102C600042A553A564A575A54419550966097709B8
:102C70002701612C712C441555056605770570F404
:102C8000542F4427550FB501640F751F40E052E0E3
:102C90008E960E94FD06E881F9811482FE2CEE24B6
:102CA000FF0CAE0CBF1C8E819F81A885B9858E0D4F
:102CB0009F1DA11DB11D8E839F83A887B987F10138
:102CC000808191818E0D9F1D91838083CE18DF08B6
:102CD000C114D10409F05BCF47CF452B462B472BBE
:102CE00069F46E857F8588899989611571058105EB
:102CF000910589F440E050E0BA0104C04A895B893B
:102D00006C897D89CF010E946B0E6115710581056B
:102D1000910509F429CF613071058105910529F4E8
:102D200082E08D8382E090E073C06F3FFFEF7F070A
:102D30008F079F0729F481E08D8381E090E068C0D0
:102D40006A8B7B8B8C8B9D8B4E845F8468887988A3
:102D500045284628472809F039CF6E877F87888B1A
:102D6000998B34CF0E940A08892B09F440CFE3CF16
:102D70004E815F81688579858A859B85AC85BD8517
:102D8000481759076A077B0758F0C4010E940A08D0
:102D9000892B89F6E881F98142A653A664A675A617
:102DA0004E8A5F8A688E798E8E819F81917020E035
:102DB00032E0281B390B76012C153D0508F479010A
:102DC0004E895F89688D798D888199810E9412086A
:102DD000892B09F0B0CF8E819F81A885B98591702C
:102DE000AA27BB278E9628813981A701B501820FBA
:102DF000931F0E94FD06E881F98131E0348351CFB1
:102E00008C8180628C8380E090E002C087E090E05B
:102E1000DF91CF911F910F91FF90EF90DF90CF90B6
:102E2000BF90AF909F908F907F906F905F904F90EA
:102E30003F902F900895EF92FF920F931F93CF939F
:102E4000DF9300D0CDB7DEB7FC012281338137FD9F
:102E50002EC08C017901FFEFEF1AFF0AFC01E20F8F
:102E6000F31F66838DE3E816F104CCF09E012F5F1B
:102E70003F4FA701B8016A5F7F4FF80180819181C0
:102E80000E947E1581E090E029813A812E153F0550
:102E900011F480E090E0EE24FF24E81AF90AF8012A
:102EA000F382E282848195810196958384830F90D9
:102EB0000F90DF91CF911F910F91FF90EF900895A8
:102EC000CF93DF93EC010E9489070097C9F52C810D
:102ED00025FF36C04A8D5B8D6C8D7D8D88819981F3
:102EE0000E941208009761F5EE8DFF8D8385806248
:102EF00083878A859B85AC85BD85848F958FA68FBA
:102F0000B78F8E859F85A889B989938F828FB58B5E
:102F1000A48B80E090E0A9E6B5E4868B978BA08F28
:102F2000B18F138A128A8C818F7D8C83E881F9811D
:102F300081E0848388819981DF91CF910C94290B62
:102F4000DF91CF910895CF93DF93EC010E9460173A
:102F5000009739F4CE010E948907009711F4198275
:102F60001882DF91CF9108954F925F926F927F9276
:102F70008F929F92AF92BF92CF92DF92EF92FF9289
:102F80000F931F93CF93DF9300D000D000D0CDB725
:102F9000DEB79E838D836A017B010E9489070097BB
:102FA00009F078C1AD81BE8115968C91882311F00E
:102FB00090E070C1ED81FE8182859385A485B58501
:102FC0008C159D05AE05BF0528F4248121FD02C0A6
:102FD0006C017D01AD81BE8116964D905D906D9026
:102FE0007C901997FD011682178210861186C114F4
:102FF000D104E104F10409F449C1AD81BE810D9110
:103000001C91F8018280912CA12CB12C39E0880C04
:10301000991CAA1CBB1C3A95D1F7411451046104B8
:10302000710409F440C0F1E04F1A510861087108B9
:10303000C701B6016150710981099109A501940187
:103040000E942A2A29833A834B835C83C301B201FD
:10305000A50194010E942A2A89819A81AB81BC81B1
:1030600082179307A407B507F0F088279927DC019A
:1030700088199909AA09BB09482259226A227B2288
:10308000AD81BE8116964D925D926D927C9219979C
:10309000C418D508E608F70852964D915D916D91D8
:1030A0007C9155973BC0ED81FE81468557856089AF
:1030B0007189411551056105710551F540E050E0F8
:1030C000BA01C8010E946B0EAB01BC014130510531
:1030D0006105710541F482E0AD81BE8115968C9346
:1030E00082E090E0D7C04F3FBFEF5B076B077B07E5
:1030F00039F481E0ED81FE81858381E090E0CAC0F2
:10310000AD81BE811E964D935D936D937C935197D7
:10311000ED81FE81428B538B648B758B411551057C
:103120006105710509F046C0C12CD12C76017DC026
:10313000AD81BE8114962C9114978D919C9121FFA5
:1031400040C00E946B0EAB01BC01411551056105E9
:103150007105E1F14F3FBFEF5B076B077B0749F25A
:10316000423051056105710508F4B5CFAD81BE81CE
:10317000ED91FC9182899389A489B58948175907F3
:103180006A077B0708F0A7CFED81FE81428B538B46
:10319000648B758B86819781A085B185880D991D7B
:1031A000AA1DBB1D86839783A087B187C818D9083D
:1031B000EA08FB088C149D04AE04BF0408F4B8CFE1
:1031C00007C00E94BF0BAB01BC01C4CF75016401F5
:1031D000ED81FE8186819781A085B1858C0D9D1D35
:1031E000AE1DBF1D86839783A087B187D701C60117
:1031F0009170AA27BB27892B8A2B8B2B09F494CF9C
:10320000808191810E94970B61157105810591055F
:1032100009F461CF29E0F694E794D794C7942A95EE
:10322000D1F7C60ED71EE81EF91EED81FE818681FC
:103230009781A085B185AC01BD01517066277727C4
:10324000452B462B472B69F046895789608D718D38
:10325000C416D506E606F70621F0C68AD78AE08EA0
:10326000F18EED81FE814285538564857585481711
:1032700059076A077B0738F482879387A487B58745
:1032800084818062848380E090E004C080E090E0EC
:10329000DC01E7CF26960FB6F894DEBF0FBECDBF98
:1032A000DF91CF911F910F91FF90EF90DF90CF9022
:1032B000BF90AF909F908F907F906F905F904F9056
:1032C00008950F931F93CF93DF93CDB7DEB7609729
:1032D0000FB6F894DEBF0FBECDBF788B6F87009717
:1032E00009F45EC08C0140E0BE01615F7F4FCE01FA
:1032F0000D960E948E08009709F04EC08D859E8520
:10330000D80111969C938E93CE01019655969C936D
:103310008E9354976F857889C8010E945610009744
:1033200009F045C0F801428953894115510519F149
:10333000DA011B968C911B9784FF2CC05A968D91B5
:103340009C915B97A0E0B0E02D853E85F90120813E
:10335000233061F4FA014489558960E070E0BA01D4
:1033600055274427842B952BA62BB72BF801868352
:103370009783A087B187ED85FE8586819781F801C7
:103380009383828360E070E0C8010E948E0C8430D9
:10339000910541F485E090E0D8011D921C920BC08C
:1033A00089E003C00097C1F780E090E004C084305A
:1033B000910581F3F1CF60960FB6F894DEBF0FBE92
:1033C000CDBFDF91CF911F910F910895CF93DF93E0
:1033D000EC010E948907009711F419821882DF918D
:1033E000CF910895CF92DF92EF92FF920F931F93A8
:1033F000CF93DF93CDB7DEB72C970FB6F894DEBF2F
:103400000FBECDBF8C016B010E9489077C01892B07
:1034100079F5C114D10431F460E070E0C8010E9474
:103420008E0C25C0CE010196F801958B848BC801C6
:103430000E94BC118430910531F4F801168617867C
:10344000108A118A02C0009791F4B601C8010E9447
:103450001C0760E070E0C8010E944B0F84309105AA
:1034600031F4F80116861786108A118A01C07C0192
:10347000C7012C960FB6F894DEBF0FBECDBFDF910B
:10348000CF911F910F91FF90EF90DF90CF90089513
:10349000EF92FF920F931F93CF93DF93CDB7DEB7D9
:1034A000A4970FB6F894DEBF0FBECDBF9CA38BA32D
:1034B0007B0140E0BE016D5D7F4FCE0101960E9411
:1034C0008E088C01892BD9F4CE0147969E8B8D8B6B
:1034D0006BA17CA146970E9456108C01892B79F430
:1034E0008B899C89892B49F0E114F10441F0B701E3
:1034F000CE0101960E941C0702C006E010E0C80140
:10350000A4960FB6F894DEBF0FBECDBFDF91CF916A
:103510001F910F91FF90EF9008953F924F925F920D
:103520006F927F928F929F92AF92BF92CF92DF92D3
:10353000EF92FF920F931F93CF93DF93CDB7DEB738
:1035400028970FB6F894DEBF0FBECDBF9A8389834C
:103550004B018A0140E0BE016F5F7F4FC8010E94AE
:103560008E085C01892B09F0C2C0D8010D911C9115
:10357000F80186859785A089B18942885388648837
:103580007588B301A20142505109610971094817B8
:1035900059076A077B0730F0F40180839183A28387
:1035A000B383A5C03080B1E03B1233C022E0422E8D
:1035B000512C612C712CC12CD12C7601B301A201AC
:1035C000C8010E94BF0B6F3FEFEF7E078E079E077B
:1035D00009F476C0613071058105910509F474C064
:1035E000672B682B692B29F4FFEFCF1ADF0AEF0A4C
:1035F000FF0A2FEF421A520A620A720AF801828900
:103600009389A489B589481659066A067B06B0F2E3
:1036100060C0468D578D60A171A1E0E0F0E0188692
:103620001F82C12CD12C76018F819885892BC9F4FA
:10363000DB01CA010196A11DB11D8B839C83AD8363
:10364000BE83C8010E941208009709F041C0F8012A
:10365000BE964B815C816D817E81A0E0B2E0B8872F
:10366000AF83B2E03B1210C020813181232B29F4BB
:103670002FEFC21AD20AE20AF20A32968F81988597
:10368000029798878F8314C080819181A281B38132
:10369000BF70892B8A2B8B2B29F49FEFC91AD90A6B
:1036A000E90AF90A3496AF81B8851497B887AF83D1
:1036B000B1E04B1A51086108710809F0B5CF09C093
:1036C000AA24A394B12C05C082E0A82EB12C01C07D
:1036D0005C01F801C686D786E08AF18A858181601F
:1036E0008583D401CD92DD92ED92FC921397C501B2
:1036F00028960FB6F894DEBF0FBECDBFDF91CF91F5
:103700001F910F91FF90EF90DF90CF90BF90AF90FF
:103710009F908F907F906F905F904F903F90089513
:103720008F929F92AF92BF92EF92FF920F931F934F
:10373000CF93DF93EC010E9489077C01892B09F06C
:103740006FC08D81882319F0E82EF12C69C08C811F
:1037500081FF5FC04E815F81688579858A849B8403
:10376000AC84BD84481559056A057B0508F058C02E
:103770004A875B876C877D8780628C83888199818B
:10378000452B462B472B59F44E855F8568897989EF
:103790000E9449121E861F86188A198A35C04A89D6
:1037A0005B896C897D890E94BF0B4B015C018FEFA7
:1037B00088169806A806B80681F1E1E08E169104F5
:1037C000A104B10419F482E090E020C088819981BD
:1037D000FC01428953896489758984169506A60679
:1037E000B706F0F44A895B896C897D890FEF1FEF7A
:1037F0002FEF3FE00E946A0D009741F4B501A4014C
:10380000888199810E944912009751F08D837C0133
:1038100007C087E0E82EF12C03C081E090E0F6CFEE
:10382000C701DF91CF911F910F91FF90EF90BF9053
:10383000AF909F908F900895CF92DF92EF92FF927A
:10384000CF93DF93CDB7DEB7EA970FB6F894DEBF1C
:103850000FBECDBF9AAF89AF41E0BE01675C7F4F1D
:10386000CE0147960E948E08009709F06EC0CE01E7
:103870008D969CA78BA769AD7AAD46970E9456108E
:10388000009709F062C0E9A5FAA53097E9F1238510
:1038900020FD59C0C28CD38CE12CF12CAF89B88D9E
:1038A0008C91833059F484899589A0E0B0E0DC01E3
:1038B00099278827C82AD92AEA2AFB2A24FF27C061
:1038C000C114D104E104F104D9F146E150E0BE0194
:1038D000695E7F4FCE0101960E94FD06CF82D88699
:1038E000E986FA8662E070E0CE0101960E948E0CB5
:1038F000009759F5CE0101960E94BC11009719F16D
:103900008430910521F021C086E090E01EC0CE01F8
:1039100047960E94420D0097C1F4C114D104E104FE
:10392000F10429F48F89988D0E94290B0EC0B701EC
:10393000A6018F89988D0E944912009731F4F2CF29
:1039400082E090E002C087E090E0EA960FB6F8943B
:10395000DEBF0FBECDBFDF91CF91FF90EF90DF9024
:10396000CF9008952F923F924F925F926F927F92E5
:103970008F929F92AF92BF92CF92DF92EF92FF927F
:103980000F931F93CF93DF93CDB7DEB7AC970FB6EE
:10399000F894DEBF0FBECDBF9CA38BA341E0BE0158
:1039A0006D5D7F4FCE0101960E948E088C01892BA0
:1039B00009F0FCC0CE0147969E8B8D8B6BA17CA13C
:1039C00046970E9456108C010097F9F0049709F071
:1039D000EDC040E050E0BA0189819A810E946B0EEF
:1039E0004B015C01611571058105910589F061301C
:1039F00071058105910579F402E010E0B501A4019B
:103A000089819A810E944912D1C008E010E0CEC09D
:103A100007E010E0F3CF6F3F7F4F8F4F9F4F09F4C8
:103A20009FC089819A810E940A088C01892B31F7F5
:103A300009811A81B501A401C8010E94970B2B01CD
:103A40003C0178013EE2E30EF11C680142EDC41A2C
:103A50004DEFD40AF701CE16DF0611F01192FBCF1D
:103A6000C801C996F70120E28E179F0711F0219334
:103A7000FBCF8EE2382ED8019E963C929E9780E135
:103A8000D9968C9380E090E0A9E6B5E4F801EC5B70
:103A9000FF4F80839183A283B38334969182808287
:103AA0009501442755272DA33EA34FA358A736972A
:103AB0003183208340E250E0B701C801825B9F4F11
:103AC0000E94FD06F801E15BFF4F30824F8158856F
:103AD00069857A85E981FA818081833061F482A1E8
:103AE00093A1A4A1B5A1481759076A077B0719F448
:103AF00040E050E0BA01D801A859BF4F11965C933D
:103B00004E9316976D937C93328022242394332016
:103B100051F189819A81A30192012F5F3F4F4F4F4D
:103B20005F4F29A73AA74BA75CA7DC019A964D9255
:103B30005D926D927C929D9714962C920E94AB0799
:103B40008C01892B09F05ACFF701EC15FD0511F016
:103B50001192FBCF3A9449A45AA46BA47CA4D7CF6A
:103B600001E010E04BCFCE0101960E94F8118C01CC
:103B7000892B09F043CFEB89FC8980E1838780E0C2
:103B800090E0A9E6B5E4868B978BA08FB18F938EDA
:103B9000828E2DA13EA1358B248B89819A8121E0D3
:103BA000DC0114962C930E94290B8C01C801AC9661
:103BB0000FB6F894DEBF0FBECDBFDF91CF911F913E
:103BC0000F91FF90EF90DF90CF90BF90AF909F90BC
:103BD0008F907F906F905F904F903F902F900895BF
:103BE0000F931F93CF93DF93CDB7DEB7A4970FB694
:103BF000F894DEBF0FBECDBF9CA38BA3062F142F5E
:103C000041E0BE016D5D7F4FCE0101960E948E089E
:103C10000097F9F4CE0147969E8B8D8B6BA17CA10A
:103C200046970E9456100097A1F4EB89FC893097C3
:103C300071F083850827102317721827138789814D
:103C40009A8121E0FC0124830E94290B02C086E0B6
:103C500090E0A4960FB6F894DEBF0FBECDBFDF9103
:103C6000CF911F910F910895EF92FF920F931F93A1
:103C7000CF93DF93CDB7DEB7C155D1090FB6F89416
:103C8000DEBF0FBECDBF60969FAF8EAF60976296CE
:103C90007FAF6EAF629741E0BE01625B7F4FCE01A6
:103CA00047960E948E08009709F0C5C08F89988DAD
:103CB0009A838983CE018E5B9F4F9CA78BA76096CA
:103CC0006EAD7FAD60978B970E945610009709F0FC
:103CD000B2C069A57AA56115710509F496C0655F42
:103CE0007F4F45E150E0CE018D960E94FD0646E1F2
:103CF00050E0BE01695E7F4FCE0101960E94FD0635
:103D0000CE01805B9F4F0E94690797FD81C062963C
:103D10006EAD7FAD6297CE0101960E94561000975E
:103D200009F479C08430910509F085C0CE0101966F
:103D30000E94F811009709F07EC0EB88FC8843E1EF
:103D400050E0BE01615D7F4FC7010D960E94FD06E8
:103D50008DA58062D7011B968C931B970F89188DB8
:103D600081E0F80184831B968C9184FF5AC04D8DAD
:103D70005E8D6F8D78A18F819885A985BA8548174A
:103D800059076A077B0709F44CC0D7015A964D9131
:103D90005C915B9760E070E08081833069F45496B9
:103DA0008D919C915597A0E0B0E0DC019927882780
:103DB000482B592B6A2B7B2BC8010E94970BAB0118
:103DC000BC01411551056105710541F1C8010E9411
:103DD0001208009781F5EF89F88DDF01A15BBF4FD5
:103DE0008C918E32F1F44F81588569857A859F01D7
:103DF00028593F4FD9014D935C9326503109D90181
:103E00006D937C9381E084830CC084E090E013C0C8
:103E10008BE090E010C088E090E00DC082E090E080
:103E20000AC0CE0147960E94420D009721F48F8967
:103E3000988D0E94290BCF5ADF4F0FB6F894DEBF42
:103E40000FBECDBFDF91CF911F910F91FF90EF90EB
:103E500008950F931F93CF93DF93CDB7DEB7A49749
:103E60000FB6F894DEBF0FBECDBF9CA38BA38B0112
:103E700041E0BE016D5D7F4FCE0101960E948E082C
:103E8000009731F5CE0147969E8B8D8B6BA17CA15F
:103E900046970E9456100097D9F4EB89FC89309719
:103EA000A9F0D80116968D919C911797978B868BC8
:103EB00014968D919C911597918F808F89819A810D
:103EC00021E0FC0124830E94290B02C086E090E0DF
:103ED000A4960FB6F894DEBF0FBECDBFDF91CF9191
:103EE0001F910F9108958F929F92AF92BF92CF92A0
:103EF000DF92EF92FF920F931F93CF93DF9300D047
:103F000000D0CDB7DEB77C014A018C01C12CD12C89
:103F10005B0181E0A81AB108CA14DB04D4F49E0145
:103F20002F5F3F4F41E050E0BE016D5F7F4FC40106
:103F30000E943C1489819A81019759F48B810F5F0B
:103F40001F4FF801319780839FEFC91AD90A8A3031
:103F500019F7F8011082CD2811F0C70102C080E0E6
:103F600090E00F900F900F900F90DF91CF911F91E5
:103F70000F91FF90EF90DF90CF90BF90AF909F9008
:103F80008F900895CF93DF93CDB7DEB7C854D10992
:103F90000FB6F894DEBF0FBECDBF7A8369831C8253
:103FA0001B821E821D82682FCE0101960E941B1764
:103FB0004B815C8157FF03C08FEF9FEF17C09E01BD
:103FC000295B3F4FBE01695F7F4F89819A810E94C3
:103FD0007E15892B89F72B813C8129968EAD9FAD6B
:103FE00029972817390741F78D819E81C85BDF4FDC
:103FF0000FB6F894DEBF0FBECDBFDF91CF9108950D
:104000000F931F93CF93DF93CDB7DEB7C854D10979
:104010000FB6F894DEBF0FBECDBF7A8369831C82D2
:104020001B821E821D828C01F80161918F01662323
:1040300029F0CE0101960E941B17F6CF4B815C81BF
:1040400057FF03C08FEF9FEF17C09E01295B3F4FC3
:10405000BE01695F7F4F89819A810E947E15892BFD
:1040600089F72B813C8129968EAD9FAD2997281722
:10407000390741F78D819E81C85BDF4F0FB6F894F9
:10408000DEBF0FBECDBFDF91CF911F910F9108957D
:104090002F923F924F925F926F927F928F929F9258
:1040A000AF92BF92CF92DF92EF92FF920F931F9346
:1040B000CF93DF93CDB7DEB7C056D1090FB6F894D2
:1040C000DEBF0FBECDBFE996EEACFFACE997E79639
:1040D0008EAD9FADE7979A8389831C821B821E82D7
:1040E0001D828E0107581F4F1E0127E4220E311C2E
:1040F000D7016C91662309F474C1653221F0BFEFDA
:10410000EB1AFB0A9EC0F7016181603339F43396E4
:10411000D70112966C91992493940CC0F7016D32DB
:1041200019F03296912C06C03396D70112966C91F5
:1041300052E0952E612C712C7F0190ED960F9A30F4
:1041400080F4BAE0B69D9001B79D300D112439017D
:10415000660E711C67FD7A9420E3621A7108619102
:10416000EBCF962F9F7D9C3441F4392D3460932EF4
:104170006081AF014F5F5F4F7A01662309F431C15F
:104180009FE9960F9A3118F490EE960F01C0962F82
:104190009F34D9F054F4933409F445C0943409F4AD
:1041A00057C0923409F452C04CC0953509F450C040
:1041B000983509F444C0933509F043C0F801C08034
:1041C000D1800E5F1F4FF60102C0E8E042C05F01E0
:1041D000AC18BD0881918111FACF91FC0DC0C501C9
:1041E0005FEFA51AB50A8615970530F460E2CE0197
:1041F00001960E941B17F3CFD6016D916D016623C6
:1042000029F0CE0101960E941B17F6CFA614B70421
:1042100008F06ECF60E2CE0101960E941B17BFEF3F
:10422000AB1ABB0AF3CF6801E2E0CE0ED11CD80175
:104230006C91CE0101960E941B17860159CFE0E1D7
:1042400008C0CE0101960E941B1752CFE2E001C0C8
:10425000EAE092FE10C0D8012D913D914D915C9104
:104260006D962CAF3DAF4EAF5FAF6D970C5F1F4F9C
:104270009434C1F51FC098012E5F3F4FD8014D9176
:104280005C91943461F4CA01550FAA0BBB0B6D9677
:104290008CAF9DAFAEAFBFAF6D9789010BC0CA01A8
:1042A000A0E0B0E06D968CAF9DAFAEAFBFAF6D97A5
:1042B000890118C06D962CAD3DAD4EAD5FAD6D97CB
:1042C00057FF10C050954095309521953F4F4F4F67
:1042D0005F4F6D962CAF3DAF4EAF5FAF6D97392DF1
:1042E0003860932E683719F447E2842E02C037E015
:1042F000832E2101A12CB12C8E2F90E0A0E0B0E004
:10430000A1968CAF9DAFAEAFBFAFA1976D966CADD0
:104310007DAD8EAD9FAD6D97A1962CAD3DAD4EADF3
:104320005FADA1970E942A2A862F6D962CAF3DAFD4
:104330004EAF5FAF6D976A3014F0882D860F650120
:104340009FEFC91AD90A805DD2018D932D01232BCD
:10435000242B252B49F0B0E1CB16D10411F05601E6
:10436000D5CF2FE0A22EB12C93FE09C0F101EC0DA8
:10437000FD1D2DE22083A5014E5F5F4F6A0190FC79
:1043800003C090E2592E02C080E3582E560191FCE2
:104390000FC045015FEF851A950AA614B70438F4DB
:1043A000652DCE0101960E941B175401F2CF5401D6
:1043B000C20CD31CD6016E916D01CE0101960E94F4
:1043C0001B172C143D04B1F7A614B70408F090CEC7
:1043D000652DCE0101960E941B17BFEFAB1ABB0AD9
:1043E000F3CF4B815C8157FF03C08FEF9FEF17C066
:1043F0009E01295A3F4FBE01695F7F4F89819A8193
:104400000E947E15892B89F72B813C8169968EADA0
:104410009FAD69972817390741F78D819E81C05A52
:10442000DF4F0FB6F894DEBF0FBECDBFDF91CF9147
:104430001F910F91FF90EF90DF90CF90BF90AF90C2
:104440009F908F907F906F905F904F903F902F90B4
:10445000089523B123B123B123B10197D1F7089572
:10446000FC01680F791F919197FF02C02A9A01C041
:104470002A98299A299896FF02C02A9A01C02A9858
:10448000299A299895FF02C02A9A01C02A98299A48
:10449000299894FF02C02A9A01C02A98299A29983B
:1044A00093FF02C02A9A01C02A98299A299892FF5C
:1044B00002C02A9A01C02A98299A299891FF02C01D
:1044C0002A9A01C02A98299A299890FF02C02A9A0C
:1044D00001C02A98299A2998E617F70721F6089526
:1044E0002A9AFC01680F791F93B1299A299893FBA6
:1044F000992790F9990F1B999F5F299A2998990FED
:104500001B999F5F299A2998990F1B999F5F299A58
:104510002998990F1B999F5F299A2998990F1B99A0
:104520009F5F299A2998990F1B999F5F299A29982B
:10453000990F1B999F5F299A29989193E617F7077E
:1045400099F608950F931F93CF93DF931F92CDB7E2
:10455000DEB708E813E161E070E0CE0101960E9449
:10456000702289818F3F39F084E690E00E942922F1
:104570000150110981F781E090E0012B11F480E0F6
:1045800090E00F90DF91CF911F910F910895CF93FD
:10459000DF931F92CDB7DEB7289A61E070E0CE01BD
:1045A00001960E9470220F90DF91CF9108950F9392
:1045B0001F93CF93DF931F92CDB7DEB7289861E0AA
:1045C00070E0CE0101960E9470220E94A2228C010E
:1045D000892B19F40E94C72202C001E010E0C80133
:1045E0000F90DF91CF911F910F910895CF92DF929D
:1045F000EF92FF920F931F93CF93DF9300D0CDB72D
:10460000DEB77C016B0108EE13E061E070E0CE01E3
:1046100001960E94702289818F3F81F089818E3FAF
:10462000A9F4B601C7010E94702262E070E0CE01D9
:1046300001960E94702281E090E00AC084E690E03A
:104640000E9429220150110901F7E8CF80E090E093
:104650000F900F90DF91CF911F910F91FF90EF90EE
:10466000DF90CF900895DF92EF92FF920F931F9308
:10467000CF93DF93CDB7DEB727970FB6F894DEBFA1
:104680000FBECDBF182F042FF52EE62ED72E87FF95
:104690000AC040E050E0BA0187E30E943323823031
:1046A00008F03FC01F771C3051F4812F806489834C
:1046B000DA82EB82FC820D83112351F108C00E9443
:1046C000C7220E94D722892B81F78FEF2AC018308A
:1046D00011F487E801C081E08E8366E070E0CE01CE
:1046E00001960E9430221C3031F461E070E0CE016E
:1046F00007960E9470221AE061E070E0CE010796F2
:104700000E9470228F8187FF0CC01150A9F709C049
:1047100085E98E8366E070E0CE0101960E9430222A
:10472000EACF27960FB6F894DEBF0FBECDBFDF915C
:10473000CF911F910F91FF90EF90DF900895EF922E
:10474000FF921F93CF93DF9300D0CDB7DEB77C01EC
:10475000162F0E94A222009731F1198361E070E0C8
:10476000CE0101960E9430221D3FD9F060E072E038
:10477000C7010E94302262E070E0CE0101960E94E3
:10478000702261E070E0CE0101960E947022898162
:104790008F7131E020E0853009F030E0832F922FD7
:1047A00002C081E090E00F900F90DF91CF911F91B8
:1047B000FF90EF900895811103C080912801089522
:1047C00081E00895EF92FF920F931F93CF93DF93B1
:1047D00000D000D0CDB7DEB7811183C080E197E271
:1047E0000E942922209A289A219A2998229A1AE02E
:1047F00061E070E0CE0101960E9470221150C1F775
:1048000040E050E0BA0180E00E943323813009F09B
:1048100049C04AEA51E060E070E088E00E9433233A
:104820008130F9F464E070E0CE0101960E947022BC
:104830008B818130B9F58C818A3AA1F508EE13E0BD
:1048400040E050E060E070E489EA0E94332388236E
:1048500059F188EE93E00E9429220150110981F755
:1048600021C040E050E0BA0189EA0E94332382303F
:1048700018F011E001E002C019EA02E088EEE82E2B
:1048800083E0F82E40E050E0BA01812F0E943323EC
:10489000882359F188EE93E00E94292281E0E81AEA
:1048A000F10881F700E012C040E050E0BA018AE36D
:1048B0000E9433238111F6CF64E070E0CE010196AF
:1048C0000E947022898186FD0EC004E0009353018E
:1048D00011E0011110E0109328010E94C722812FDE
:1048E0000EC083E00CC00CE0F1CF40E052E060E08D
:1048F00070E080E10E9433238111D4CFE7CF0F9085
:104900000F900F900F90DF91CF911F910F91FF901B
:10491000EF900895EF92FF920F931F93CF937B0137
:10492000BA01A901811103C08091280101C081E071
:1049300080FD32C08091530183FD07C089E0440FA0
:10494000551F661F771F8A95D1F70230110510F4A5
:10495000C1E101C0C2E18C2F0E943323811114C038
:1049600060E072E0C7010E94F622892B29F08EEFE9
:10497000F81A01501109A1F7C23131F440E050E0BA
:10498000BA018CE00E9433230E94C72281E090E0AC
:10499000012B21F480E002C083E090E0CF911F91D1
:1049A0000F91FF90EF900895CF92DF92EF92FF92D8
:1049B0000F931F93CF93DF93EB0169017A0181116C
:1049C00003C08091280101C081E080FD4BC080912F
:1049D000530183FD07C099E0CC0CDD1CEE1CFF1CCD
:1049E0009A95D1F70130110599F4B701A60188E134
:1049F0000E94332381112CC06EEFCE010E949F23B1
:104A000031E020E0892B09F030E0032F122F22C083
:104A1000867031F0A80160E070E087E90E943323DE
:104A2000B701A60189E10E943323811113C06CEF05
:104A3000CE010E949F23892B21F0DE5F01501109D6
:104A4000B1F76DEF80E090E00E949F23892B11F475
:104A500001E010E00E94C72281E090E0012B21F4E8
:104A600080E002C083E090E0DF91CF911F910F9131
:104A7000FF90EF90DF90CF9008950F931F93CF9307
:104A8000DF93CDB7DEB760970FB6F894DEBF0FBEE9
:104A9000CDBF811103C08091280101C081E080FD5C
:104AA00082C08A01613091F040F0633009F075C036
:104AB00080E890E0A0E0B0E069C00E94D72201E069
:104AC00010E0892B09F46BC000E069C040E050E0C1
:104AD000BA0189E00E943323882311F001E05EC00F
:104AE00060E170E0CE0101960E94F622892BB1F3BD
:104AF0009981929596959695937029854A85888592
:104B00009130D9F430E0322F2227240F311D8F73DA
:104B100090E0A0E0B0E0DC01992788270196A11D74
:104B2000B11D820F931FA11DB11DEAE0880F991FCF
:104B3000AA1FBB1FEA95D1F729C022952695269575
:104B40002370F4E08F9FC0011124820F911D019604
:104B50002F81237030E0322F2227330F330F820F43
:104B6000931FA0E0B0E02E81322F3F702B85221FD3
:104B70002227221F230F4370440F420F475004C0C7
:104B8000880F991FAA1FBB1F4A95D2F7F80180838F
:104B90009183A283B38300E001C004E010E00E948F
:104BA000C722C80102C083E090E060960FB6F89477
:104BB000DEBF0FBECDBFDF91CF911F910F91089542
:104BC000CF93DF93EC010E94CD06209154013091E8
:104BD0005501280F311D87FD3A95309355012093DB
:104BE0005401CE01DF91CF910895CF93DF93EC0173
:104BF000809158019091590188382FEF92077CF0ED
:104C00008F3F9105C4F41C161D0664F4893291058A
:104C1000D4F08536910594F4C2E0D0E014C0C1E030
:104C2000D0E011C0843B910574F48E3191054CF0B5
:104C3000C6EFDFEF08C0CCEEDFEF05C0C5E0D0E087
:104C400002C0CBEFDFEF8C0F9D1F90935901809333
:104C5000580197FD06C08F3F910521F01CF08FEFA2
:104C600001C080E00E94FA05CE01DF91CF91089546
:104C70000F931F93CF93DF93CDB7DEB728970FB66F
:104C8000F894DEBF0FBECDBF8091560190915701C1
:104C9000682F9E838D83039698878F834091290187
:104CA00050912A01242F5A834983FA0133964E2FBB
:104CB000FC83EB8300E018EF3A815C817E8198856C
:104CC0000E944E0228960FB6F894DEBF0FBECDBFED
:104CD000DF91CF911F910F910895AF92BF92CF9224
:104CE000DF92EF92FF920F931F93CF93DF937C019C
:104CF0006B015A01C82FDF2D00E010E00C151D05D7
:104D000094F4688179816D3281E0780744F44A81B6
:104D10005B81413F51051CF4C5010E940D050F5FE9
:104D20001F4F2496EBCFC701DF91CF911F910F91B9
:104D3000FF90EF90DF90CF90BF90AF900C94072D35
:104D4000AF92BF92CF92DF92EF92FF920F93CF93E9
:104D5000DF93EC017B015A01690180EA9FE00E9428
:104D60006F2CFC0120E030E02A153B059CF4D18338
:104D7000C083F382E282093719F4EC0CFD1C04C0F5
:104D8000083731F4CC0DDD1D2F5F3F4F3496ECCF4B
:104D900080E090E0DF91CF910F91FF90EF90DF9056
:104DA000CF90BF90AF9008950F9309E727E030E0D0
:104DB00042E250E060E070E080E090E00E94A026D7
:104DC0000F9108950E94D42644E451E062E270E01D
:104DD0000C946D260F9309E727E030E042E250E0A3
:104DE00060E070E08CE291E00E94A0260F910895AF
:104DF0000E94EA2644E451E062E270E00C946D26E1
:104E00000F9308E723E030E04AE550E060E070E00F
:104E10008EE190E00E94A0260F9108950E94002745
:104E200046E451E06AE570E00C946D260F9308E7C4
:104E300023E030E04AE550E06BEE70E080E090E087
:104E40000E94A0260F9108950E94162746E451E083
:104E50006AE570E00C946D260F9308E723E030E0DC
:104E60004EE150E064E170E08EE190E00E94A02607
:104E70000F9108950E942C2746E451E06EE170E006
:104E80000C946D260F9308E723E030E04EE150E0EC
:104E900064E170E080ED90E00E94A0260F910895FB
:104EA0000E94422746E451E06EE170E00C946D26CA
:104EB0000F9308E723E030E049E050E06CE370E056
:104EC00083E090E00E94A0260F9108950E94582749
:104ED00046E451E069E070E00C946D260F9308E71A
:104EE00023E030E049E050E06AE570E08EE190E0D8
:104EF0000E94A0260F9108950E946E2746E451E07B
:104F000069E070E00C946D260F9308E723E030E031
:104F100049E050E06AE570E082EB90E00E94A02654
:104F20000F9108950E94842746E451E069E070E003
:104F30000C946D260F9308E723E030E049E050E041
:104F400068E770E08EE190E00E94A0260F9108953E
:104F50000E949A2746E451E069E070E00C946D26C7
:104F60000F9308E723E030E042E350E068E770E0A9
:104F700085E790E00E94A0260F9108950E94B02737
:104F800046E451E062E370E00C946D260F9308E76D
:104F900023E030E04EE350E06AEA70E083E090E026
:104FA0000E94A0260F9108950E94C62746E451E072
:104FB0006EE370E00C946D260F9308E723E030E079
:104FC00043E150E06AEA70E080EF90E00E94A026A2
:104FD0000F9108950E94DC2746E451E063E170E000
:104FE0000C946D260F9308E723E030E04DE050E08D
:104FF00062ED70E088E790E00E94A0260F9108958E
:105000000E94F22746E451E06DE070E00C946D26BA
:105010000F9308E723E030E04DE050E062ED70E0F0
:1050200088EC90E00E94A0260F9108950E94082825
:1050300046E451E06DE070E00C946D260F9309E7B3
:1050400027E030E049E050E06BE170E082E390E07F
:105050000E94A0260F9108950E941E2844E451E06A
:1050600069E070E00C946D260F9309E727E030E0CB
:105070004EE050E067E170E085E790E00E94A026F6
:105080000F9108950E94342844E451E06EE070E0EE
:105090000C946D260F9309E727E030E04AE050E0DA
:1050A00067E170E082EB90E00E94A0260F910895E6
:1050B0000E944A2844E451E06AE070E00C946D26B6
:1050C0000F9309E727E030E04AE050E067E170E045
:1050D00080ED90E00E94A0260F9108950E94602824
:1050E00044E451E06AE070E00C946D260F9309E708
:1050F00027E030E044E050E06FE570E08CE190E0C4
:105100000E94A0260F9108950E94762844E451E061
:1051100064E070E00C946D260F9309E727E030E01F
:1051200049E050E06CE370E08EE091E00E94A02640
:105130000F9108950E948C2844E451E069E070E0EA
:105140000C946D260F9309E727E030E04CE050E027
:105150006FE770E080EF90E00E94A0260F91089525
:105160000E94A22844E451E06CE070E00C946D26AB
:105170000F9309E727E030E045E050E061EB70E095
:1051800080EA90E00E94A0260F9108950E94B8281E
:1051900044E451E065E070E00C946D260F9309E75C
:1051A00027E030E045E050E062ED70E08EE190E015
:1051B0000E94A0260F9108950E94CE2844E451E059
:1051C00065E070E00C946D260F9309E727E030E06E
:1051D00045E050E062ED70E08EE091E00E94A02694
:1051E0000F9108950E94E42844E451E065E070E0E6
:1051F0000C946D260E940E270E9424270E94E2260E
:105200000E94F8260E943A270E9450270E94662793
:105210000E947C270E9492270E94A8270E94BE27F6
:105220000E94D4270E94EA270E9400280E94162884
:105230000E942C280E9442280E9458280E946E2812
:105240000E9484280E949A280E94B0280E94C628A2
:105250000E94DC280C94F2280F931F93CF93DF93C6
:10526000CDB7DEB728970FB6F894DEBF0FBECDBF1F
:105270001A821982E8E8F3E0808191810197482F32
:105280009C838B831E821D828281938101979887E4
:105290008F830485158520E03A815C8160E07E8102
:1052A00098850E944E020E94FA288FE090E0909329
:1052B0002A018093290110925701109256012896D5
:1052C0000FB6F894DEBF0FBECDBFDF91CF911F9117
:1052D0000F910C943826CF93DF93EC0184E00E9469
:1052E000D806882359F08091560190915701039771
:1052F00090935701809356010E94382688E00E94BF
:10530000D806882359F08091290190912A010396AB
:1053100090932A01809329010E94382680E10E94FF
:10532000D806882359F08091560190915701039631
:1053300090935701809356010E94382680E20E9484
:10534000D806882359F08091290190912A0103976A
:1053500090932A01809329010E94382680E80E94B8
:10536000F90681110E942C2980E80E94F206811121
:105370000E942C2984E00E94E306882359F0809142
:1053800056019091570103979093570180935601CE
:105390000E94382688E00E94E306882359F0809115
:1053A000290190912A01039690932A018093290163
:1053B0000E94382680E10E94E306882359F08091FC
:1053C000560190915701039690935701809356018F
:1053D0000E94382680E20E94E306882359F08091DB
:1053E000290190912A01039790932A018093290122
:1053F0000E94382682E00E94E30680E40E94F906BB
:10540000CE01DF91CF9108950E948D0121E030E01F
:105410004EE150E060E070E085EF95E20E94010609
:1054200021E030E044EF51E060E070E080EE95E292
:105430000E94010621E030E044E650E060E070E0C8
:105440008BE699E20E94010678940E94FA280E9455
:105450003826FFCFA1E21A2EAA1BBB1BFD010DC0EF
:10546000AA1FBB1FEE1FFF1FA217B307E407F50714
:1054700020F0A21BB30BE40BF50B661F771F881FF0
:10548000991F1A9469F760957095809590959B0186
:10549000AC01BD01CF0108950E94572AA59F900D30
:1054A000B49F900DA49F800D911D11240895A29F7B
:1054B000B001B39FC001A39F700D811D1124911DE8
:1054C000B29F700D811D1124911D08955058BB2766
:1054D000AA270E947E2A0C94C82B0E94BA2B38F06F
:1054E0000E94C12B20F039F49F3F19F426F40C944C
:1054F000B72B0EF4E095E7FB0C94B12BE92F0E943B
:10550000D92B58F3BA17620773078407950720F061
:1055100079F4A6F50C94FB2B0EF4E0950B2EBA2F24
:10552000A02D0B01B90190010C01CA01A0011124A9
:10553000FF27591B99F0593F50F4503E68F11A1655
:10554000F040A22F232F342F4427585FF3CF4695E6
:1055500037952795A795F0405395C9F77EF41F1608
:10556000BA0B620B730B840BBAF09150A1F0FF0FD2
:10557000BB1F661F771F881FC2F70EC0BA0F621FBE
:10558000731F841F48F4879577956795B795F795AE
:105590009E3F08F0B0CF9395880F08F09927EE0F43
:1055A0009795879508950E94E72A0C94C82B0E942E
:1055B000C12B58F00E94BA2B40F029F45F3F29F02C
:1055C0000C94B12B51110C94FC2B0C94B72B0E9412
:1055D000D92B68F39923B1F3552391F3951B550B00
:1055E000BB27AA2762177307840738F09F5F5F4FB6
:1055F000220F331F441FAA1FA9F335D00E2E3AF0F5
:10560000E0E832D091505040E695001CCAF72BD00C
:10561000FE2F29D0660F771F881FBB1F261737075D
:105620004807AB07B0E809F0BB0B802DBF01FF278F
:1056300093585F4F3AF09E3F510578F00C94B12B90
:105640000C94FC2B5F3FE4F3983ED4F3869577955A
:105650006795B795F7959F5FC9F7880F911D969548
:10566000879597F90895E1E0660F771F881FBB1FA4
:10567000621773078407BA0720F0621B730B840B51
:10568000BA0BEE1F88F7E09508950E94E12B88F091
:105690009F5798F0B92F9927B751B0F0E1F0660FF6
:1056A000771F881F991F1AF0BA95C9F714C0B13037
:1056B00091F00E94FB2BB1E008950C94FB2B672F17
:1056C000782F8827B85F39F0B93FCCF38695779566
:1056D0006795B395D9F73EF490958095709561954F
:1056E0007F4F8F4F9F4F0895E89409C097FB3EF47A
:1056F00090958095709561957F4F8F4F9F4F99231F
:10570000A9F0F92F96E9BB279395F695879577959C
:105710006795B795F111F8CFFAF4BB0F11F460FF5C
:105720001BC06F5F7F4F8F4F9F4F16C0882311F0B4
:1057300096E911C0772321F09EE8872F762F05C0C8
:10574000662371F096E8862F70E060E02AF09A9563
:10575000660F771F881FDAF7880F9695879597F958
:10576000089597F99F6780E870E060E008959FEFE3
:1057700080EC089500240A941616170618060906E8
:10578000089500240A9412161306140605060895B7
:10579000092E0394000C11F4882352F0BB0F40F43F
:1057A000BF2B11F460FF04C06F5F7F4F8F4F9F4F7F
:1057B000089557FD9058440F551F59F05F3F71F001
:1057C0004795880F97FB991F61F09F3F79F0879568
:1057D0000895121613061406551FF2CF4695F1DFF1
:1057E00008C0161617061806991FF1CF8695710581
:1057F000610508940895E894BB2766277727CB01B5
:1058000097F908950E94152C0C94C82B0E94BA2B6E
:1058100038F00E94C12B20F0952311F00C94B12B8D
:105820000C94B72B11240C94FC2B0E94D92B70F3F1
:10583000959FC1F3950F50E0551F629FF001729F35
:10584000BB27F00DB11D639FAA27F00DB11DAA1F44
:10585000649F6627B00DA11D661F829F2227B00D91
:10586000A11D621F739FB00DA11D621F839FA00D1C
:10587000611D221F749F3327A00D611D231F849F6C
:10588000600D211D822F762F6A2F11249F575040C3
:105890009AF0F1F088234AF0EE0FFF1FBB1F661F3E
:1058A000771F881F91505040A9F79E3F510580F007
:1058B0000C94B12B0C94FC2B5F3FE4F3983ED4F393
:1058C000869577956795B795F795E7959F5FC1F7AB
:1058D000FE2B880F911D9695879597F908950F9344
:1058E0001F93CF93DF938230910510F482E090E014
:1058F000E0913E04F0913F0420E030E0A0E0B0E011
:10590000309719F14081518102811381481759075D
:10591000C8F08417950769F4109731F012960C932C
:10592000129713961C9327C000933E0410933F04D4
:1059300022C02115310519F04217530718F49A01B6
:10594000BD01EF01DF01F801DBCF21153105F9F0D1
:10595000281B390B2430310580F48A819B81611525
:10596000710521F0FB019383828304C090933F046F
:1059700080933E04FE01329644C0FE01E20FF31F05
:105980008193919322503109398328833AC0209121
:105990003C0430913D04232B41F420912D013091A2
:1059A0002E0130933D0420933C0420912B01309133
:1059B0002C012115310541F42DB73EB740912F013F
:1059C00050913001241B350BE0913C04F0913D04D3
:1059D000E217F307A0F42E1B3F0B2817390778F0C6
:1059E000AC014E5F5F4F2417350748F04E0F5F1F25
:1059F00050933D0440933C048193919302C0E0E0B6
:105A0000F0E0CF01DF91CF911F910F910895CF93D7
:105A1000DF93009709F481C0FC0132971382128250
:105A2000A0913E04B0913F04109781F42081318110
:105A3000820F931F20913C0430913D0428173907B1
:105A400051F5F0933D04E0933C0467C0ED0120E084
:105A500030E0CE17DF0740F44A815B819E0141159B
:105A60005105F1F0EA01F5CFD383C2834081518122
:105A7000840F951FC817D90759F488819981840F1D
:105A8000951F0296918380838A819B819383828371
:105A90002115310529F4F0933F04E0933E043DC005
:105AA000E901FB83EA8349915991C40FD51FEC1793
:105AB000FD0761F480819181840F951F0296E901B1
:105AC00099838883828193819B838A83E0E0F0E0DD
:105AD00012968D919C911397009719F0FD01DC01AE
